{
  "_format": "hh-sol-artifact-1",
  "contractName": "Arbitrage",
  "sourceName": "contracts/Arbitrage.sol",
  "abi": [
    {
      "inputs": [
        {
          "internalType": "address",
          "name": "_vault",
          "type": "address"
        }
      ],
      "stateMutability": "nonpayable",
      "type": "constructor"
    },
    {
      "inputs": [
        {
          "internalType": "address",
          "name": "target",
          "type": "address"
        },
        {
          "internalType": "bytes",
          "name": "callData",
          "type": "bytes"
        }
      ],
      "name": "CallFailed",
      "type": "error"
    },
    {
      "inputs": [
        {
          "internalType": "address",
          "name": "caller",
          "type": "address"
        }
      ],
      "name": "InvalidCaller",
      "type": "error"
    },
    {
      "inputs": [
        {
          "internalType": "uint256",
          "name": "length1",
          "type": "uint256"
        },
        {
          "internalType": "uint256",
          "name": "length2",
          "type": "uint256"
        }
      ],
      "name": "LengthNotMatch",
      "type": "error"
    },
    {
      "inputs": [
        {
          "internalType": "address",
          "name": "owner",
          "type": "address"
        }
      ],
      "name": "OwnableInvalidOwner",
      "type": "error"
    },
    {
      "inputs": [
        {
          "internalType": "address",
          "name": "account",
          "type": "address"
        }
      ],
      "name": "OwnableUnauthorizedAccount",
      "type": "error"
    },
    {
      "anonymous": false,
      "inputs": [
        {
          "indexed": true,
          "internalType": "address",
          "name": "previousOwner",
          "type": "address"
        },
        {
          "indexed": true,
          "internalType": "address",
          "name": "newOwner",
          "type": "address"
        }
      ],
      "name": "OwnershipTransferred",
      "type": "event"
    },
    {
      "inputs": [
        {
          "internalType": "contract IERC20[]",
          "name": "tokens",
          "type": "address[]"
        },
        {
          "internalType": "address[]",
          "name": "spenders",
          "type": "address[]"
        }
      ],
      "name": "approveTokens",
      "outputs": [],
      "stateMutability": "nonpayable",
      "type": "function"
    },
    {
      "inputs": [
        {
          "internalType": "address",
          "name": "target",
          "type": "address"
        },
        {
          "internalType": "bytes",
          "name": "data",
          "type": "bytes"
        }
      ],
      "name": "delegateCall",
      "outputs": [],
      "stateMutability": "nonpayable",
      "type": "function"
    },
    {
      "inputs": [
        {
          "internalType": "contract IERC20[]",
          "name": "tokens",
          "type": "address[]"
        },
        {
          "internalType": "uint256[]",
          "name": "amounts",
          "type": "uint256[]"
        },
        {
          "internalType": "bytes",
          "name": "userData",
          "type": "bytes"
        }
      ],
      "name": "makeFlashLoan",
      "outputs": [],
      "stateMutability": "nonpayable",
      "type": "function"
    },
    {
      "inputs": [],
      "name": "owner",
      "outputs": [
        {
          "internalType": "address",
          "name": "",
          "type": "address"
        }
      ],
      "stateMutability": "view",
      "type": "function"
    },
    {
      "inputs": [
        {
          "internalType": "contract IERC20[]",
          "name": "tokens",
          "type": "address[]"
        },
        {
          "internalType": "uint256[]",
          "name": "amounts",
          "type": "uint256[]"
        },
        {
          "internalType": "uint256[]",
          "name": "feeAmounts",
          "type": "uint256[]"
        },
        {
          "internalType": "bytes",
          "name": "userData",
          "type": "bytes"
        }
      ],
      "name": "receiveFlashLoan",
      "outputs": [],
      "stateMutability": "nonpayable",
      "type": "function"
    },
    {
      "inputs": [],
      "name": "renounceOwnership",
      "outputs": [],
      "stateMutability": "nonpayable",
      "type": "function"
    },
    {
      "inputs": [
        {
          "internalType": "address",
          "name": "newOwner",
          "type": "address"
        }
      ],
      "name": "transferOwnership",
      "outputs": [],
      "stateMutability": "nonpayable",
      "type": "function"
    },
    {
      "inputs": [],
      "name": "vault",
      "outputs": [
        {
          "internalType": "address",
          "name": "",
          "type": "address"
        }
      ],
      "stateMutability": "view",
      "type": "function"
    },
    {
      "inputs": [
        {
          "internalType": "address[]",
          "name": "tokens",
          "type": "address[]"
        }
      ],
      "name": "withdraw",
      "outputs": [],
      "stateMutability": "nonpayable",
      "type": "function"
    }
  ],
  "bytecode": "0x60a060405234801561001057600080fd5b506040516111dc3803806111dc83398101604081905261002f916100c0565b338061005557604051631e4fbdf760e01b81526000600482015260240160405180910390fd5b61005e81610070565b506001600160a01b03166080526100f0565b600080546001600160a01b038381166001600160a01b0319831681178455604051919092169283917f8be0079c531659141344cd1fd0a4f28419497f9722a3daafe3b4186f6b6457e09190a35050565b6000602082840312156100d257600080fd5b81516001600160a01b03811681146100e957600080fd5b9392505050565b6080516110bc61012060003960008181610141015281816104e30152818161056a015261063801526110bc6000f3fe608060405234801561001057600080fd5b50600436106100925760003560e01c8063bd5dec9811610066578063bd5dec98146100f0578063c9a6956214610103578063f04f270714610116578063f2fde38b14610129578063fbfa77cf1461013c57600080fd5b8062663bf31461009757806356e7b7aa146100ac578063715018a6146100bf5780638da5cb5b146100c7575b600080fd5b6100aa6100a53660046108ac565b610163565b005b6100aa6100ba36600461096f565b61027e565b6100aa610310565b6000546001600160a01b03165b6040516001600160a01b03909116815260200160405180910390f35b6100aa6100fe3660046109c4565b610324565b6100aa610111366004610a06565b6104c2565b6100aa610124366004610c1c565b61055f565b6100aa610137366004610d27565b610714565b6100d47f000000000000000000000000000000000000000000000000000000000000000081565b8281146101925760405163da506a0f60e01b815260048101849052602481018290526044015b60405180910390fd5b60001960005b84811015610276578585828181106101b2576101b2610d4b565b90506020020160208101906101c79190610d27565b6001600160a01b031663095ea7b38585848181106101e7576101e7610d4b565b90506020020160208101906101fc9190610d27565b6040516001600160e01b031960e084901b1681526001600160a01b039091166004820152602481018590526044016020604051808303816000875af1158015610249573d6000803e3d6000fd5b505050506040513d601f19601f8201168201806040525081019061026d9190610d61565b50600101610198565b505050505050565b610286610752565b6000836001600160a01b031683836040516102a2929190610d83565b600060405180830381855af49150503d80600081146102dd576040519150601f19603f3d011682016040523d82523d6000602084013e6102e2565b606091505b505090508061030a57838383604051636c544f3360e01b815260040161018993929190610dbc565b50505050565b610318610752565b610322600061077f565b565b61032c610752565b3360005b8281101561030a57600084848381811061034c5761034c610d4b565b90506020020160208101906103619190610d27565b6001600160a01b0316036103aa576040516001600160a01b038316904780156108fc02916000818181858888f193505050501580156103a4573d6000803e3d6000fd5b506104ba565b60008484838181106103be576103be610d4b565b90506020020160208101906103d39190610d27565b6040516370a0823160e01b81523060048201529091506001600160a01b0382169063a9059cbb90859083906370a0823190602401602060405180830381865afa158015610424573d6000803e3d6000fd5b505050506040513d601f19601f820116820180604052508101906104489190610dea565b6040516001600160e01b031960e085901b1681526001600160a01b03909216600483015260248201526044016020604051808303816000875af1158015610493573d6000803e3d6000fd5b505050506040513d601f19601f820116820180604052508101906104b79190610d61565b50505b600101610330565b6104ca610752565b604051632e1c224f60e11b815230906001600160a01b037f00000000000000000000000000000000000000000000000000000000000000001690635c38449e906105249084908b908b908b908b908b908b90600401610e03565b600060405180830381600087803b15801561053e57600080fd5b505af1158015610552573d6000803e3d6000fd5b5050505050505050505050565b336001600160a01b037f000000000000000000000000000000000000000000000000000000000000000016146105aa5760405163065ece9760e51b8152336004820152602401610189565b805115610602576000818060200190518101906105c79190610ecd565b905060005b81518110156105ff576105f78282815181106105ea576105ea610d4b565b60200260200101516107cf565b6001016105cc565b50505b60005b845181101561070d5784818151811061062057610620610d4b565b60200260200101516001600160a01b031663a9059cbb7f000000000000000000000000000000000000000000000000000000000000000085848151811061066957610669610d4b565b602002602001015187858151811061068357610683610d4b565b60200260200101516106959190611001565b6040516001600160e01b031960e085901b1681526001600160a01b03909216600483015260248201526044016020604051808303816000875af11580156106e0573d6000803e3d6000fd5b505050506040513d601f19601f820116820180604052508101906107049190610d61565b50600101610605565b5050505050565b61071c610752565b6001600160a01b03811661074657604051631e4fbdf760e01b815260006004820152602401610189565b61074f8161077f565b50565b6000546001600160a01b031633146103225760405163118cdaa760e01b8152336004820152602401610189565b600080546001600160a01b038381166001600160a01b0319831681178455604051919092169283917f8be0079c531659141344cd1fd0a4f28419497f9722a3daafe3b4186f6b6457e09190a35050565b805160208201516040516000926001600160a01b0316916107ef91611028565b6000604051808303816000865af19150503d806000811461082c576040519150601f19603f3d011682016040523d82523d6000602084013e610831565b606091505b505090508061085c5781516020830151604051636c544f3360e01b8152610189929190600401611044565b5050565b60008083601f84011261087257600080fd5b50813567ffffffffffffffff81111561088a57600080fd5b6020830191508360208260051b85010111156108a557600080fd5b9250929050565b600080600080604085870312156108c257600080fd5b843567ffffffffffffffff808211156108da57600080fd5b6108e688838901610860565b909650945060208701359150808211156108ff57600080fd5b5061090c87828801610860565b95989497509550505050565b6001600160a01b038116811461074f57600080fd5b60008083601f84011261093f57600080fd5b50813567ffffffffffffffff81111561095757600080fd5b6020830191508360208285010111156108a557600080fd5b60008060006040848603121561098457600080fd5b833561098f81610918565b9250602084013567ffffffffffffffff8111156109ab57600080fd5b6109b78682870161092d565b9497909650939450505050565b600080602083850312156109d757600080fd5b823567ffffffffffffffff8111156109ee57600080fd5b6109fa85828601610860565b90969095509350505050565b60008060008060008060608789031215610a1f57600080fd5b863567ffffffffffffffff80821115610a3757600080fd5b610a438a838b01610860565b90985096506020890135915080821115610a5c57600080fd5b610a688a838b01610860565b90965094506040890135915080821115610a8157600080fd5b50610a8e89828a0161092d565b979a9699509497509295939492505050565b634e487b7160e01b600052604160045260246000fd5b6040805190810167ffffffffffffffff81118282101715610ad957610ad9610aa0565b60405290565b604051601f8201601f1916810167ffffffffffffffff81118282101715610b0857610b08610aa0565b604052919050565b600067ffffffffffffffff821115610b2a57610b2a610aa0565b5060051b60200190565b600082601f830112610b4557600080fd5b81356020610b5a610b5583610b10565b610adf565b8083825260208201915060208460051b870101935086841115610b7c57600080fd5b602086015b84811015610b985780358352918301918301610b81565b509695505050505050565b600067ffffffffffffffff821115610bbd57610bbd610aa0565b50601f01601f191660200190565b600082601f830112610bdc57600080fd5b8135610bea610b5582610ba3565b818152846020838601011115610bff57600080fd5b816020850160208301376000918101602001919091529392505050565b60008060008060808587031215610c3257600080fd5b843567ffffffffffffffff80821115610c4a57600080fd5b818701915087601f830112610c5e57600080fd5b81356020610c6e610b5583610b10565b82815260059290921b8401810191818101908b841115610c8d57600080fd5b948201945b83861015610cb4578535610ca581610918565b82529482019490820190610c92565b98505088013592505080821115610cca57600080fd5b610cd688838901610b34565b94506040870135915080821115610cec57600080fd5b610cf888838901610b34565b93506060870135915080821115610d0e57600080fd5b50610d1b87828801610bcb565b91505092959194509250565b600060208284031215610d3957600080fd5b8135610d4481610918565b9392505050565b634e487b7160e01b600052603260045260246000fd5b600060208284031215610d7357600080fd5b81518015158114610d4457600080fd5b8183823760009101908152919050565b81835281816020850137506000828201602090810191909152601f909101601f19169091010190565b6001600160a01b0384168152604060208201819052600090610de19083018486610d93565b95945050505050565b600060208284031215610dfc57600080fd5b5051919050565b6001600160a01b03888116825260806020808401829052908301889052600091899160a08501845b8b811015610e52578435610e3e81610918565b841682529382019390820190600101610e2b565b5085810360408701528881526001600160fb1b03891115610e7257600080fd5b8860051b9350838a838301379092018481038301606086015291610e998184018789610d93565b9c9b505050505050505050505050565b60005b83811015610ec4578181015183820152602001610eac565b50506000910152565b60006020808385031215610ee057600080fd5b825167ffffffffffffffff80821115610ef857600080fd5b818501915085601f830112610f0c57600080fd5b8151610f1a610b5582610b10565b81815260059190911b83018401908481019088831115610f3957600080fd5b8585015b83811015610ff457805185811115610f555760008081fd5b86016040818c03601f1901811315610f6d5760008081fd5b610f75610ab6565b89830151610f8281610918565b81528282015188811115610f965760008081fd5b8084019350508c603f840112610fac5760008081fd5b89830151610fbc610b5582610ba3565b8181528e84838701011115610fd15760008081fd5b610fe0828d8301868801610ea9565b828c01525085525050918601918601610f3d565b5098975050505050505050565b8082018082111561102257634e487b7160e01b600052601160045260246000fd5b92915050565b6000825161103a818460208701610ea9565b9190910192915050565b60018060a01b03831681526040602082015260008251806040840152611071816060850160208701610ea9565b601f01601f191691909101606001939250505056fea2646970667358221220960e7b8ef25503ee229e97fa24bb18eb1600472baab8b3b6b033e24e141b734364736f6c63430008180033",
  "linkReferences": {},
  "deployedLinkReferences": {}
}